{
  "contractName": "Destroyable",
  "abi": [
    {
      "constant": false,
      "inputs": [],
      "name": "selfDestruct",
      "outputs": [],
      "payable": false,
      "stateMutability": "nonpayable",
      "type": "function"
    }
  ],
  "bytecode": "0x6080604052336000806101000a81548173ffffffffffffffffffffffffffffffffffffffff021916908373ffffffffffffffffffffffffffffffffffffffff16021790555060db806100526000396000f3fe6080604052348015600f57600080fd5b506004361060285760003560e01c80639cb8a26a14602d575b600080fd5b60336035565b005b6000809054906101000a900473ffffffffffffffffffffffffffffffffffffffff1673ffffffffffffffffffffffffffffffffffffffff163373ffffffffffffffffffffffffffffffffffffffff1614608d57600080fd5b3373ffffffffffffffffffffffffffffffffffffffff16fffea265627a7a723158207e9282f6cd3088e426f3be22b9d264aac15ac1b4b85320ee2fa35fca5e5cd45064736f6c63430005100032",
  "source": "import \"./Ownable.sol\";\r\n\r\npragma solidity ^0.5.16;\r\n\r\ncontract Destroyable is Ownable\r\n{\r\n    function selfDestruct() public onlyOwner\r\n    {\r\n        selfdestruct(msg.sender);\r\n    }\r\n}",
  "sourcePath": "C:\\Users\\User\\Desktop\\crypto\\eth_project\\My_first_project\\Backend\\contracts\\Destroyable.sol",
  "compiler": {
    "name": "solc",
    "version": "0.5.16+commit.9c3226ce.Emscripten.clang"
  },
  "schemaVersion": "3.2.3",
  "updatedAt": "2020-08-26T09:44:53.425Z",
  "devdoc": {
    "methods": {}
  },
  "userdoc": {
    "methods": {}
  }
}