{
  "contractName": "Flip",
  "abi": [
    {
      "inputs": [],
      "payable": false,
      "stateMutability": "nonpayable",
      "type": "constructor"
    },
    {
      "anonymous": false,
      "inputs": [
        {
          "indexed": false,
          "internalType": "uint256",
          "name": "n",
          "type": "uint256"
        }
      ],
      "name": "wol",
      "type": "event"
    },
    {
      "constant": true,
      "inputs": [],
      "name": "balance",
      "outputs": [
        {
          "internalType": "uint256",
          "name": "",
          "type": "uint256"
        }
      ],
      "payable": false,
      "stateMutability": "view",
      "type": "function"
    },
    {
      "constant": true,
      "inputs": [
        {
          "internalType": "address",
          "name": "",
          "type": "address"
        }
      ],
      "name": "playerId",
      "outputs": [
        {
          "internalType": "bytes32",
          "name": "",
          "type": "bytes32"
        }
      ],
      "payable": false,
      "stateMutability": "view",
      "type": "function"
    },
    {
      "constant": true,
      "inputs": [
        {
          "internalType": "bytes32",
          "name": "",
          "type": "bytes32"
        }
      ],
      "name": "players",
      "outputs": [
        {
          "internalType": "uint256",
          "name": "playerNum",
          "type": "uint256"
        },
        {
          "internalType": "bool",
          "name": "waiting",
          "type": "bool"
        }
      ],
      "payable": false,
      "stateMutability": "view",
      "type": "function"
    },
    {
      "constant": false,
      "inputs": [],
      "name": "selfDestruct",
      "outputs": [],
      "payable": false,
      "stateMutability": "nonpayable",
      "type": "function"
    },
    {
      "constant": false,
      "inputs": [
        {
          "internalType": "bytes32",
          "name": "_myid",
          "type": "bytes32"
        },
        {
          "internalType": "string",
          "name": "_result",
          "type": "string"
        }
      ],
      "name": "__callback",
      "outputs": [],
      "payable": false,
      "stateMutability": "nonpayable",
      "type": "function"
    },
    {
      "constant": false,
      "inputs": [
        {
          "internalType": "bytes32",
          "name": "_queryId",
          "type": "bytes32"
        },
        {
          "internalType": "string",
          "name": "_result",
          "type": "string"
        },
        {
          "internalType": "bytes",
          "name": "_proof",
          "type": "bytes"
        }
      ],
      "name": "__callback",
      "outputs": [],
      "payable": false,
      "stateMutability": "nonpayable",
      "type": "function"
    },
    {
      "constant": false,
      "inputs": [],
      "name": "update",
      "outputs": [],
      "payable": true,
      "stateMutability": "payable",
      "type": "function"
    },
    {
      "constant": false,
      "inputs": [
        {
          "internalType": "uint256",
          "name": "n",
          "type": "uint256"
        }
      ],
      "name": "coinFlip",
      "outputs": [],
      "payable": true,
      "stateMutability": "payable",
      "type": "function"
    },
    {
      "constant": false,
      "inputs": [],
      "name": "donate",
      "outputs": [],
      "payable": true,
      "stateMutability": "payable",
      "type": "function"
    },
    {
      "constant": false,
      "inputs": [
        {
          "internalType": "uint256",
          "name": "toWithdraw",
          "type": "uint256"
        }
      ],
      "name": "takeMoney",
      "outputs": [
        {
          "internalType": "uint256",
          "name": "",
          "type": "uint256"
        }
      ],
      "payable": false,
      "stateMutability": "nonpayable",
      "type": "function"
    }
  ],
  "bytecode": "0x60806040523480156200001157600080fd5b50336000806101000a81548173ffffffffffffffffffffffffffffffffffffffff021916908373ffffffffffffffffffffffffffffffffffffffff160217905550620000626200006860201b60201c565b62001fbc565b6000809050600062030d40905060006200008b836001846200010560201b60201c565b905080600760003373ffffffffffffffffffffffffffffffffffffffff1673ffffffffffffffffffffffffffffffffffffffff1681526020019081526020016000208190555060016008600083815260200190815260200160002060010160006101000a81548160ff021916908315150217905550505050565b6000808311801562000118575060208311155b6200012257600080fd5b600a84029350606060016040519080825280601f01601f1916602001820160405280156200015f5781602001600182028038833980820191505090505b5090508360f81b816000815181106200017457fe5b60200101907effffffffffffffffffffffffffffffffffffffffffffffffffffffffffffff1916908160001a905350606060206040519080825280601f01601f191660200182016040528015620001da5781602001600182028038833980820191505090505b509050606060206040519080825280601f01601f191660200182016040528015620002145781602001600182028038833980820191505090505b509050600062000229620006d860201b60201c565b905060208352424118600143034018602084015260208252806020830152606060206040519080825280601f01601f1916602001820160405280156200027e5781602001600182028038833980820191505090505b509050886020820152606060086040519080825280601f01601f191660200182016040528015620002be5781602001600182028038833980820191505090505b509050620002d9826018600884600062000a1460201b60201c565b50620002e462001ecb565b60405180608001604052808781526020018881526020018681526020018481525090506000620003516040518060400160405280600681526020017f72616e646f6d0000000000000000000000000000000000000000000000000000815250838c62000a7660201b60201c565b9050606060086040519080825280601f01601f1916602001820160405280156200038a5781602001600182028038833980820191505090505b50905060208401517f0100000000000000000000000000000000000000000000000000000000000000810460278301537e01000000000000000000000000000000000000000000000000000000000000810460268301537d010000000000000000000000000000000000000000000000000000000000810460258301537c0100000000000000000000000000000000000000000000000000000000810460248301537b01000000000000000000000000000000000000000000000000000000810460238301537a010000000000000000000000000000000000000000000000000000810460228301537901000000000000000000000000000000000000000000000000008104602183015378010000000000000000000000000000000000000000000000008104602083015350620006c5828285600160048110620004cb57fe5b6020020151600287600060048110620004e057fe5b60200201516040518082805190602001908083835b602083106200051a5780518252602082019150602081019050602083039250620004f5565b6001836020036101000a038019825116818451168082178552505050505050905001915050602060405180830381855afa1580156200055d573d6000803e3d6000fd5b5050506040513d60208110156200057357600080fd5b8101908080519060200190929190505050876002600481106200059257fe5b60200201516040516020018085805190602001908083835b60208310620005cf5780518252602082019150602081019050602083039250620005aa565b6001836020036101000a03801982511681845116808217855250505050505090500184805190602001908083835b60208310620006225780518252602082019150602081019050602083039250620005fd565b6001836020036101000a03801982511681845116808217855250505050505090500183815260200182805190602001908083835b602083106200067b578051825260208201915060208101905060208303925062000656565b6001836020036101000a0380198251168184511680821785525050505050509050019450505050506040516020818303038152906040528051906020012062000e1060201b60201c565b8199505050505050505050509392505050565b60008073ffffffffffffffffffffffffffffffffffffffff16600260009054906101000a900473ffffffffffffffffffffffffffffffffffffffff1673ffffffffffffffffffffffffffffffffffffffff161480620007695750600062000767600260009054906101000a900473ffffffffffffffffffffffffffffffffffffffff1662000e2c60201b60201c565b145b15620007835762000781600062000e3760201b60201c565b505b600260009054906101000a900473ffffffffffffffffffffffffffffffffffffffff1673ffffffffffffffffffffffffffffffffffffffff166338cc48316040518163ffffffff1660e01b8152600401602060405180830381600087803b158015620007ee57600080fd5b505af115801562000803573d6000803e3d6000fd5b505050506040513d60208110156200081a57600080fd5b810190808051906020019092919050505073ffffffffffffffffffffffffffffffffffffffff16600160009054906101000a900473ffffffffffffffffffffffffffffffffffffffff1673ffffffffffffffffffffffffffffffffffffffff16146200096957600260009054906101000a900473ffffffffffffffffffffffffffffffffffffffff1673ffffffffffffffffffffffffffffffffffffffff166338cc48316040518163ffffffff1660e01b8152600401602060405180830381600087803b158015620008eb57600080fd5b505af115801562000900573d6000803e3d6000fd5b505050506040513d60208110156200091757600080fd5b8101908080519060200190929190505050600160006101000a81548173ffffffffffffffffffffffffffffffffffffffff021916908373ffffffffffffffffffffffffffffffffffffffff1602179055505b600160009054906101000a900473ffffffffffffffffffffffffffffffffffffffff1673ffffffffffffffffffffffffffffffffffffffff1663abaa5f3e6040518163ffffffff1660e01b815260040160206040518083038186803b158015620009d257600080fd5b505afa158015620009e7573d6000803e3d6000fd5b505050506040513d6020811015620009fe57600080fd5b8101908080519060200190929190505050905090565b606060008285019050808451101562000a2c57600080fd5b600086602001905060008460200190505b86886020010182101562000a67578189015180828801525060208201915060208101905062000a3d565b85935050505095945050505050565b60008073ffffffffffffffffffffffffffffffffffffffff16600260009054906101000a900473ffffffffffffffffffffffffffffffffffffffff1673ffffffffffffffffffffffffffffffffffffffff16148062000b075750600062000b05600260009054906101000a900473ffffffffffffffffffffffffffffffffffffffff1662000e2c60201b60201c565b145b1562000b215762000b1f600062000e3760201b60201c565b505b600260009054906101000a900473ffffffffffffffffffffffffffffffffffffffff1673ffffffffffffffffffffffffffffffffffffffff166338cc48316040518163ffffffff1660e01b8152600401602060405180830381600087803b15801562000b8c57600080fd5b505af115801562000ba1573d6000803e3d6000fd5b505050506040513d602081101562000bb857600080fd5b810190808051906020019092919050505073ffffffffffffffffffffffffffffffffffffffff16600160009054906101000a900473ffffffffffffffffffffffffffffffffffffffff1673ffffffffffffffffffffffffffffffffffffffff161462000d0757600260009054906101000a900473ffffffffffffffffffffffffffffffffffffffff1673ffffffffffffffffffffffffffffffffffffffff166338cc48316040518163ffffffff1660e01b8152600401602060405180830381600087803b15801562000c8957600080fd5b505af115801562000c9e573d6000803e3d6000fd5b505050506040513d602081101562000cb557600080fd5b8101908080519060200190929190505050600160006101000a81548173ffffffffffffffffffffffffffffffffffffffff021916908373ffffffffffffffffffffffffffffffffffffffff1602179055505b6060600460405190808252806020026020018201604052801562000d4057816020015b606081526020019060019003908162000d2a5790505b5090508360006004811062000d5157fe5b60200201518160008151811062000d6457fe5b60200260200101819052508360016004811062000d7d57fe5b60200201518160018151811062000d9057fe5b60200260200101819052508360026004811062000da957fe5b60200201518160028151811062000dbc57fe5b60200260200101819052508360036004811062000dd557fe5b60200201518160038151811062000de857fe5b602002602001018190525062000e0685828562000e5060201b60201c565b9150509392505050565b8060046000848152602001908152602001600020819055505050565b6000813b9050919050565b600062000e49620013e860201b60201c565b9050919050565b60008073ffffffffffffffffffffffffffffffffffffffff16600260009054906101000a900473ffffffffffffffffffffffffffffffffffffffff1673ffffffffffffffffffffffffffffffffffffffff16148062000ee15750600062000edf600260009054906101000a900473ffffffffffffffffffffffffffffffffffffffff1662000e2c60201b60201c565b145b1562000efb5762000ef9600062000e3760201b60201c565b505b600260009054906101000a900473ffffffffffffffffffffffffffffffffffffffff1673ffffffffffffffffffffffffffffffffffffffff166338cc48316040518163ffffffff1660e01b8152600401602060405180830381600087803b15801562000f6657600080fd5b505af115801562000f7b573d6000803e3d6000fd5b505050506040513d602081101562000f9257600080fd5b810190808051906020019092919050505073ffffffffffffffffffffffffffffffffffffffff16600160009054906101000a900473ffffffffffffffffffffffffffffffffffffffff1673ffffffffffffffffffffffffffffffffffffffff1614620010e157600260009054906101000a900473ffffffffffffffffffffffffffffffffffffffff1673ffffffffffffffffffffffffffffffffffffffff166338cc48316040518163ffffffff1660e01b8152600401602060405180830381600087803b1580156200106357600080fd5b505af115801562001078573d6000803e3d6000fd5b505050506040513d60208110156200108f57600080fd5b8101908080519060200190929190505050600160006101000a81548173ffffffffffffffffffffffffffffffffffffffff021916908373ffffffffffffffffffffffffffffffffffffffff1602179055505b6000600160009054906101000a900473ffffffffffffffffffffffffffffffffffffffff1673ffffffffffffffffffffffffffffffffffffffff16632ef3accc86856040518363ffffffff1660e01b81526004018080602001838152602001828103825284818151815260200191508051906020019080838360005b838110156200117a5780820151818401526020810190506200115d565b50505050905090810190601f168015620011a85780820380516001836020036101000a031916815260200191505b509350505050602060405180830381600087803b158015620011c957600080fd5b505af1158015620011de573d6000803e3d6000fd5b505050506040513d6020811015620011f557600080fd5b81019080805190602001909291905050509050823a02670de0b6b3a7640000018111156200122a576000801b915050620013e1565b60606200123d85620019b760201b60201c565b9050600160009054906101000a900473ffffffffffffffffffffffffffffffffffffffff1673ffffffffffffffffffffffffffffffffffffffff1663c55c1cb68360008985896040518663ffffffff1660e01b8152600401808581526020018060200180602001848152602001838103835286818151815260200191508051906020019080838360005b83811015620012e4578082015181840152602081019050620012c7565b50505050905090810190601f168015620013125780820380516001836020036101000a031916815260200191505b50838103825285818151815260200191508051906020019080838360005b838110156200134d57808201518184015260208101905062001330565b50505050905090810190601f1680156200137b5780820380516001836020036101000a031916815260200191505b5096505050505050506020604051808303818588803b1580156200139e57600080fd5b505af1158015620013b3573d6000803e3d6000fd5b50505050506040513d6020811015620013cb57600080fd5b8101908080519060200190929190505050925050505b9392505050565b60008062001410731d3b2638a7cc9f2cb3d298a3da7a90b67e5506ed62000e2c60201b60201c565b1115620014bc57731d3b2638a7cc9f2cb3d298a3da7a90b67e5506ed600260006101000a81548173ffffffffffffffffffffffffffffffffffffffff021916908373ffffffffffffffffffffffffffffffffffffffff160217905550620014b26040518060400160405280600b81526020017f6574685f6d61696e6e657400000000000000000000000000000000000000000081525062001a7260201b60201c565b60019050620019b4565b6000620014e373c03a2615d5efaf5f49f60b7bb6583eaec212fdf162000e2c60201b60201c565b11156200158f5773c03a2615d5efaf5f49f60b7bb6583eaec212fdf1600260006101000a81548173ffffffffffffffffffffffffffffffffffffffff021916908373ffffffffffffffffffffffffffffffffffffffff160217905550620015856040518060400160405280600c81526020017f6574685f726f707374656e33000000000000000000000000000000000000000081525062001a7260201b60201c565b60019050620019b4565b6000620015b673b7a07bcf2ba2f2703b24c0691b5278999c59ac7e62000e2c60201b60201c565b1115620016625773b7a07bcf2ba2f2703b24c0691b5278999c59ac7e600260006101000a81548173ffffffffffffffffffffffffffffffffffffffff021916908373ffffffffffffffffffffffffffffffffffffffff160217905550620016586040518060400160405280600981526020017f6574685f6b6f76616e000000000000000000000000000000000000000000000081525062001a7260201b60201c565b60019050620019b4565b60006200168973146500cfd35b22e4a392fe0adc06de1a1368ed4862000e2c60201b60201c565b1115620017355773146500cfd35b22e4a392fe0adc06de1a1368ed48600260006101000a81548173ffffffffffffffffffffffffffffffffffffffff021916908373ffffffffffffffffffffffffffffffffffffffff1602179055506200172b6040518060400160405280600b81526020017f6574685f72696e6b65627900000000000000000000000000000000000000000081525062001a7260201b60201c565b60019050620019b4565b60006200175c73a2998efd205fb9d4b4963afb70778d6354ad3a4162000e2c60201b60201c565b1115620018085773a2998efd205fb9d4b4963afb70778d6354ad3a41600260006101000a81548173ffffffffffffffffffffffffffffffffffffffff021916908373ffffffffffffffffffffffffffffffffffffffff160217905550620017fe6040518060400160405280600a81526020017f6574685f676f65726c690000000000000000000000000000000000000000000081525062001a7260201b60201c565b60019050620019b4565b60006200182f736f485c8bf6fc43ea212e93bbf8ce046c7f1cb47562000e2c60201b60201c565b11156200189557736f485c8bf6fc43ea212e93bbf8ce046c7f1cb475600260006101000a81548173ffffffffffffffffffffffffffffffffffffffff021916908373ffffffffffffffffffffffffffffffffffffffff16021790555060019050620019b4565b6000620018bc7320e12a1f859b3feae5fb2a0a32c18f5a65555bbf62000e2c60201b60201c565b111562001922577320e12a1f859b3feae5fb2a0a32c18f5a65555bbf600260006101000a81548173ffffffffffffffffffffffffffffffffffffffff021916908373ffffffffffffffffffffffffffffffffffffffff16021790555060019050620019b4565b6000620019497351efaf4c8b3c9afbd5ab9f4bbc82784ab6ef8faa62000e2c60201b60201c565b1115620019af577351efaf4c8b3c9afbd5ab9f4bbc82784ab6ef8faa600260006101000a81548173ffffffffffffffffffffffffffffffffffffffff021916908373ffffffffffffffffffffffffffffffffffffffff16021790555060019050620019b4565b600090505b90565b6060620019c962001a8e60201b60201c565b620019d362001ef3565b620019ec8161040062001a9a60201b620024901760201c565b62001a028162001ae760201b620024da1760201c565b60008090505b835181101562001a4e5762001a4084828151811062001a2357fe5b60200260200101518362001afd60201b620024e81790919060201c565b808060010191505062001a08565b5062001a658162001b3160201b6200250d1760201c565b8060000151915050919050565b806003908051906020019062001a8a92919062001f0d565b5050565b60405180590338823950565b600081905060006020828162001aac57fe5b061462001ac7576020818162001abe57fe5b06602003810190505b808360200181815250506040518084526000815281810160405250505050565b62001afa81600462001b4760201b60201c565b50565b62001b12826002835162001b6f60201b60201c565b62001b2c818362001cf760201b6200267c1790919060201c565b505050565b62001b4481600762001b4760201b60201c565b50565b62001b6b601f60058360ff16901b178362001db760201b620027271790919060201c565b5050565b6017811162001ba45762001b9e8160058460ff16901b60ff16178462001db760201b620027271790919060201c565b62001cf2565b60ff811162001bf55762001bd1601860058460ff16901b178462001db760201b620027271790919060201c565b62001bee8160018562001e0060201b62002767179092919060201c565b5062001cf1565b61ffff811162001c475762001c23601960058460ff16901b178462001db760201b620027271790919060201c565b62001c408160028562001e0060201b62002767179092919060201c565b5062001cf0565b63ffffffff811162001c9b5762001c77601a60058460ff16901b178462001db760201b620027271790919060201c565b62001c948160048562001e0060201b62002767179092919060201c565b5062001cef565b67ffffffffffffffff811162001cee5762001ccf601b60058460ff16901b178462001db760201b620027271790919060201c565b62001cec8160088562001e0060201b62002767179092919060201c565b505b5b5b5b5b505050565b62001d0162001ef3565b8260200151836000015151835101111562001d425762001d4183600262001d348660200151865162001e7a60201b60201c565b0262001e9860201b60201c565b5b60008060008451905085518051602081830101945086518101825260208701935050505b6020811062001d8b578151835260208301925060208201915060208103905062001d66565b60006001826020036101000a039050801983511681855116818117865250508694505050505092915050565b8160200151600183600001515101111562001de65762001de582600284602001510262001e9860201b60201c565b5b815180516020818301018381536001820183525050505050565b62001e0a62001ef3565b83602001518460000151518301111562001e495762001e4884600262001e3b87602001518662001e7a60201b60201c565b0262001e9860201b60201c565b5b60006001836101000a0390508451805184818301018684198251161781528582018352505050849150509392505050565b60008183111562001e8e5782905062001e92565b8190505b92915050565b60608260000151905062001eb3838362001a9a60201b60201c565b62001ec5838262001cf760201b60201c565b50505050565b60405180608001604052806004905b606081526020019060019003908162001eda5790505090565b604051806040016040528060608152602001600081525090565b828054600181600116156101000203166002900490600052602060002090601f016020900481019282601f1062001f5057805160ff191683800117855562001f81565b8280016001018555821562001f81579182015b8281111562001f8057825182559160200191906001019062001f63565b5b50905062001f90919062001f94565b5090565b62001fb991905b8082111562001fb557600081600090555060010162001f9b565b5090565b90565b6129288062001fcc6000396000f3fe6080604052600436106100915760003560e01c80639424732e116100595780639424732e146103b35780639cb8a26a1461040d578063a2e6204514610424578063b69ef8a81461042e578063ed88c68e1461045957610091565b806327dc297e1461009657806338bbfa50146101685780633cbd6429146102d1578063402e699d1461033657806369aec91214610364575b600080fd5b3480156100a257600080fd5b50610166600480360360408110156100b957600080fd5b8101908080359060200190929190803590602001906401000000008111156100e057600080fd5b8201836020820111156100f257600080fd5b8035906020019184600183028401116401000000008311171561011457600080fd5b91908080601f016020809104026020016040519081016040528093929190818152602001838380828437600081840152601f19601f820116905080830192505050505050509192919290505050610463565b005b34801561017457600080fd5b506102cf6004803603606081101561018b57600080fd5b8101908080359060200190929190803590602001906401000000008111156101b257600080fd5b8201836020820111156101c457600080fd5b803590602001918460018302840111640100000000831117156101e657600080fd5b91908080601f016020809104026020016040519081016040528093929190818152602001838380828437600081840152601f19601f8201169050808301925050505050505091929192908035906020019064010000000081111561024957600080fd5b82018360208201111561025b57600080fd5b8035906020019184600183028401116401000000008311171561027d57600080fd5b91908080601f016020809104026020016040519081016040528093929190818152602001838380828437600081840152601f19601f8201169050808301925050505050505091929192905050506104a6565b005b3480156102dd57600080fd5b50610320600480360360208110156102f457600080fd5b81019080803573ffffffffffffffffffffffffffffffffffffffff1690602001909291905050506105b8565b6040518082815260200191505060405180910390f35b6103626004803603602081101561034c57600080fd5b81019080803590602001909291905050506105d0565b005b34801561037057600080fd5b5061039d6004803603602081101561038757600080fd5b8101908080359060200190929190505050610729565b6040518082815260200191505060405180910390f35b3480156103bf57600080fd5b506103ec600480360360208110156103d657600080fd5b81019080803590602001909291905050506107ef565b60405180838152602001821515151581526020019250505060405180910390f35b34801561041957600080fd5b50610422610820565b005b61042c610892565b005b34801561043a57600080fd5b50610443610927565b6040518082815260200191505060405180910390f35b61046161092d565b005b6104a2828260006040519080825280601f01601f19166020018201604052801561049c5781602001600182028038833980820191505090505b506104a6565b5050565b6104ae61094c565b73ffffffffffffffffffffffffffffffffffffffff163373ffffffffffffffffffffffffffffffffffffffff16146104e557600080fd5b60006002836040516020018082805190602001908083835b6020831061052057805182526020820191506020810190506020830392506104fd565b6001836020036101000a0380198251168184511680821785525050505050509050019150506040516020818303038152906040528051906020012060001c8161056557fe5b06905080600860008681526020019081526020016000206000018190555060006008600086815260200190815260200160002060010160006101000a81548160ff02191690831515021790555050505050565b60076020528060005260406000206000915090505481565b662386f26fc100003410156105e457600080fd5b600060086000600760003373ffffffffffffffffffffffffffffffffffffffff1673ffffffffffffffffffffffffffffffffffffffff16815260200190815260200160002054815260200190815260200160002060000154905081811461069257346006600082825401925050819055507f6c266973f0276ca4d3f264805b67a57f592cd3cd18bbbce29685ef3c130aff1360006040518082815260200191505060405180910390a1610725565b346006600082825403925050819055503373ffffffffffffffffffffffffffffffffffffffff166108fc346002029081150290604051600060405180830381858888f193505050501580156106eb573d6000803e3d6000fd5b507f6c266973f0276ca4d3f264805b67a57f592cd3cd18bbbce29685ef3c130aff1360016040518082815260200191505060405180910390a15b5050565b60008060009054906101000a900473ffffffffffffffffffffffffffffffffffffffff1673ffffffffffffffffffffffffffffffffffffffff163373ffffffffffffffffffffffffffffffffffffffff161461078457600080fd5b60065482111561079357600080fd5b816006600082825403925050819055503373ffffffffffffffffffffffffffffffffffffffff166108fc839081150290604051600060405180830381858888f193505050501580156107e9573d6000803e3d6000fd5b50919050565b60086020528060005260406000206000915090508060000154908060010160009054906101000a900460ff16905082565b6000809054906101000a900473ffffffffffffffffffffffffffffffffffffffff1673ffffffffffffffffffffffffffffffffffffffff163373ffffffffffffffffffffffffffffffffffffffff161461087957600080fd5b3373ffffffffffffffffffffffffffffffffffffffff16ff5b6000809050600062030d40905060006108ad83600184610c6c565b905080600760003373ffffffffffffffffffffffffffffffffffffffff1673ffffffffffffffffffffffffffffffffffffffff1681526020019081526020016000208190555060016008600083815260200190815260200160002060010160006101000a81548160ff021916908315150217905550505050565b60065481565b6000341161093a57600080fd5b34600660008282540192505081905550565b60008073ffffffffffffffffffffffffffffffffffffffff16600260009054906101000a900473ffffffffffffffffffffffffffffffffffffffff1673ffffffffffffffffffffffffffffffffffffffff1614806109d4575060006109d2600260009054906101000a900473ffffffffffffffffffffffffffffffffffffffff16611207565b145b156109e5576109e36000611212565b505b600260009054906101000a900473ffffffffffffffffffffffffffffffffffffffff1673ffffffffffffffffffffffffffffffffffffffff166338cc48316040518163ffffffff1660e01b8152600401602060405180830381600087803b158015610a4f57600080fd5b505af1158015610a63573d6000803e3d6000fd5b505050506040513d6020811015610a7957600080fd5b810190808051906020019092919050505073ffffffffffffffffffffffffffffffffffffffff16600160009054906101000a900473ffffffffffffffffffffffffffffffffffffffff1673ffffffffffffffffffffffffffffffffffffffff1614610bc457600260009054906101000a900473ffffffffffffffffffffffffffffffffffffffff1673ffffffffffffffffffffffffffffffffffffffff166338cc48316040518163ffffffff1660e01b8152600401602060405180830381600087803b158015610b4857600080fd5b505af1158015610b5c573d6000803e3d6000fd5b505050506040513d6020811015610b7257600080fd5b8101908080519060200190929190505050600160006101000a81548173ffffffffffffffffffffffffffffffffffffffff021916908373ffffffffffffffffffffffffffffffffffffffff1602179055505b600160009054906101000a900473ffffffffffffffffffffffffffffffffffffffff1673ffffffffffffffffffffffffffffffffffffffff1663c281d19e6040518163ffffffff1660e01b815260040160206040518083038186803b158015610c2c57600080fd5b505afa158015610c40573d6000803e3d6000fd5b505050506040513d6020811015610c5657600080fd5b8101908080519060200190929190505050905090565b60008083118015610c7e575060208311155b610c8757600080fd5b600a84029350606060016040519080825280601f01601f191660200182016040528015610cc35781602001600182028038833980820191505090505b5090508360f81b81600081518110610cd757fe5b60200101907effffffffffffffffffffffffffffffffffffffffffffffffffffffffffffff1916908160001a905350606060206040519080825280601f01601f191660200182016040528015610d3c5781602001600182028038833980820191505090505b509050606060206040519080825280601f01601f191660200182016040528015610d755781602001600182028038833980820191505090505b5090506000610d82611223565b905060208352424118600143034018602084015260208252806020830152606060206040519080825280601f01601f191660200182016040528015610dd65781602001600182028038833980820191505090505b509050886020820152606060086040519080825280601f01601f191660200182016040528015610e155781602001600182028038833980820191505090505b509050610e288260186008846000611543565b50610e3161280d565b60405180608001604052808781526020018881526020018681526020018481525090506000610e966040518060400160405280600681526020017f72616e646f6d0000000000000000000000000000000000000000000000000000815250838c6115a2565b9050606060086040519080825280601f01601f191660200182016040528015610ece5781602001600182028038833980820191505090505b50905060208401517f0100000000000000000000000000000000000000000000000000000000000000810460278301537e01000000000000000000000000000000000000000000000000000000000000810460268301537d010000000000000000000000000000000000000000000000000000000000810460258301537c0100000000000000000000000000000000000000000000000000000000810460248301537b01000000000000000000000000000000000000000000000000000000810460238301537a0100000000000000000000000000000000000000000000000000008104602283015379010000000000000000000000000000000000000000000000000081046021830153780100000000000000000000000000000000000000000000000081046020830153506111f482828560016004811061100d57fe5b602002015160028760006004811061102157fe5b60200201516040518082805190602001908083835b602083106110595780518252602082019150602081019050602083039250611036565b6001836020036101000a038019825116818451168082178552505050505050905001915050602060405180830381855afa15801561109b573d6000803e3d6000fd5b5050506040513d60208110156110b057600080fd5b8101908080519060200190929190505050876002600481106110ce57fe5b60200201516040516020018085805190602001908083835b6020831061110957805182526020820191506020810190506020830392506110e6565b6001836020036101000a03801982511681845116808217855250505050505090500184805190602001908083835b6020831061115a5780518252602082019150602081019050602083039250611137565b6001836020036101000a03801982511681845116808217855250505050505090500183815260200182805190602001908083835b602083106111b1578051825260208201915060208101905060208303925061118e565b6001836020036101000a03801982511681845116808217855250505050505090500194505050505060405160208183030381529060405280519060200120611911565b8199505050505050505050509392505050565b6000813b9050919050565b600061121c61192d565b9050919050565b60008073ffffffffffffffffffffffffffffffffffffffff16600260009054906101000a900473ffffffffffffffffffffffffffffffffffffffff1673ffffffffffffffffffffffffffffffffffffffff1614806112ab575060006112a9600260009054906101000a900473ffffffffffffffffffffffffffffffffffffffff16611207565b145b156112bc576112ba6000611212565b505b600260009054906101000a900473ffffffffffffffffffffffffffffffffffffffff1673ffffffffffffffffffffffffffffffffffffffff166338cc48316040518163ffffffff1660e01b8152600401602060405180830381600087803b15801561132657600080fd5b505af115801561133a573d6000803e3d6000fd5b505050506040513d602081101561135057600080fd5b810190808051906020019092919050505073ffffffffffffffffffffffffffffffffffffffff16600160009054906101000a900473ffffffffffffffffffffffffffffffffffffffff1673ffffffffffffffffffffffffffffffffffffffff161461149b57600260009054906101000a900473ffffffffffffffffffffffffffffffffffffffff1673ffffffffffffffffffffffffffffffffffffffff166338cc48316040518163ffffffff1660e01b8152600401602060405180830381600087803b15801561141f57600080fd5b505af1158015611433573d6000803e3d6000fd5b505050506040513d602081101561144957600080fd5b8101908080519060200190929190505050600160006101000a81548173ffffffffffffffffffffffffffffffffffffffff021916908373ffffffffffffffffffffffffffffffffffffffff1602179055505b600160009054906101000a900473ffffffffffffffffffffffffffffffffffffffff1673ffffffffffffffffffffffffffffffffffffffff1663abaa5f3e6040518163ffffffff1660e01b815260040160206040518083038186803b15801561150357600080fd5b505afa158015611517573d6000803e3d6000fd5b505050506040513d602081101561152d57600080fd5b8101908080519060200190929190505050905090565b606060008285019050808451101561155a57600080fd5b600086602001905060008460200190505b868860200101821015611593578189015180828801525060208201915060208101905061156b565b85935050505095945050505050565b60008073ffffffffffffffffffffffffffffffffffffffff16600260009054906101000a900473ffffffffffffffffffffffffffffffffffffffff1673ffffffffffffffffffffffffffffffffffffffff16148061162a57506000611628600260009054906101000a900473ffffffffffffffffffffffffffffffffffffffff16611207565b145b1561163b576116396000611212565b505b600260009054906101000a900473ffffffffffffffffffffffffffffffffffffffff1673ffffffffffffffffffffffffffffffffffffffff166338cc48316040518163ffffffff1660e01b8152600401602060405180830381600087803b1580156116a557600080fd5b505af11580156116b9573d6000803e3d6000fd5b505050506040513d60208110156116cf57600080fd5b810190808051906020019092919050505073ffffffffffffffffffffffffffffffffffffffff16600160009054906101000a900473ffffffffffffffffffffffffffffffffffffffff1673ffffffffffffffffffffffffffffffffffffffff161461181a57600260009054906101000a900473ffffffffffffffffffffffffffffffffffffffff1673ffffffffffffffffffffffffffffffffffffffff166338cc48316040518163ffffffff1660e01b8152600401602060405180830381600087803b15801561179e57600080fd5b505af11580156117b2573d6000803e3d6000fd5b505050506040513d60208110156117c857600080fd5b8101908080519060200190929190505050600160006101000a81548173ffffffffffffffffffffffffffffffffffffffff021916908373ffffffffffffffffffffffffffffffffffffffff1602179055505b6060600460405190808252806020026020018201604052801561185157816020015b606081526020019060019003908161183c5790505b5090508360006004811061186157fe5b60200201518160008151811061187357fe5b60200260200101819052508360016004811061188b57fe5b60200201518160018151811061189d57fe5b6020026020010181905250836002600481106118b557fe5b6020020151816002815181106118c757fe5b6020026020010181905250836003600481106118df57fe5b6020020151816003815181106118f157fe5b6020026020010181905250611907858285611e84565b9150509392505050565b8060046000848152602001908152602001600020819055505050565b60008061194d731d3b2638a7cc9f2cb3d298a3da7a90b67e5506ed611207565b11156119ef57731d3b2638a7cc9f2cb3d298a3da7a90b67e5506ed600260006101000a81548173ffffffffffffffffffffffffffffffffffffffff021916908373ffffffffffffffffffffffffffffffffffffffff1602179055506119e66040518060400160405280600b81526020017f6574685f6d61696e6e65740000000000000000000000000000000000000000008152506123ea565b60019050611e81565b6000611a0e73c03a2615d5efaf5f49f60b7bb6583eaec212fdf1611207565b1115611ab05773c03a2615d5efaf5f49f60b7bb6583eaec212fdf1600260006101000a81548173ffffffffffffffffffffffffffffffffffffffff021916908373ffffffffffffffffffffffffffffffffffffffff160217905550611aa76040518060400160405280600c81526020017f6574685f726f707374656e3300000000000000000000000000000000000000008152506123ea565b60019050611e81565b6000611acf73b7a07bcf2ba2f2703b24c0691b5278999c59ac7e611207565b1115611b715773b7a07bcf2ba2f2703b24c0691b5278999c59ac7e600260006101000a81548173ffffffffffffffffffffffffffffffffffffffff021916908373ffffffffffffffffffffffffffffffffffffffff160217905550611b686040518060400160405280600981526020017f6574685f6b6f76616e00000000000000000000000000000000000000000000008152506123ea565b60019050611e81565b6000611b9073146500cfd35b22e4a392fe0adc06de1a1368ed48611207565b1115611c325773146500cfd35b22e4a392fe0adc06de1a1368ed48600260006101000a81548173ffffffffffffffffffffffffffffffffffffffff021916908373ffffffffffffffffffffffffffffffffffffffff160217905550611c296040518060400160405280600b81526020017f6574685f72696e6b6562790000000000000000000000000000000000000000008152506123ea565b60019050611e81565b6000611c5173a2998efd205fb9d4b4963afb70778d6354ad3a41611207565b1115611cf35773a2998efd205fb9d4b4963afb70778d6354ad3a41600260006101000a81548173ffffffffffffffffffffffffffffffffffffffff021916908373ffffffffffffffffffffffffffffffffffffffff160217905550611cea6040518060400160405280600a81526020017f6574685f676f65726c69000000000000000000000000000000000000000000008152506123ea565b60019050611e81565b6000611d12736f485c8bf6fc43ea212e93bbf8ce046c7f1cb475611207565b1115611d7657736f485c8bf6fc43ea212e93bbf8ce046c7f1cb475600260006101000a81548173ffffffffffffffffffffffffffffffffffffffff021916908373ffffffffffffffffffffffffffffffffffffffff16021790555060019050611e81565b6000611d957320e12a1f859b3feae5fb2a0a32c18f5a65555bbf611207565b1115611df9577320e12a1f859b3feae5fb2a0a32c18f5a65555bbf600260006101000a81548173ffffffffffffffffffffffffffffffffffffffff021916908373ffffffffffffffffffffffffffffffffffffffff16021790555060019050611e81565b6000611e187351efaf4c8b3c9afbd5ab9f4bbc82784ab6ef8faa611207565b1115611e7c577351efaf4c8b3c9afbd5ab9f4bbc82784ab6ef8faa600260006101000a81548173ffffffffffffffffffffffffffffffffffffffff021916908373ffffffffffffffffffffffffffffffffffffffff16021790555060019050611e81565b600090505b90565b60008073ffffffffffffffffffffffffffffffffffffffff16600260009054906101000a900473ffffffffffffffffffffffffffffffffffffffff1673ffffffffffffffffffffffffffffffffffffffff161480611f0c57506000611f0a600260009054906101000a900473ffffffffffffffffffffffffffffffffffffffff16611207565b145b15611f1d57611f1b6000611212565b505b600260009054906101000a900473ffffffffffffffffffffffffffffffffffffffff1673ffffffffffffffffffffffffffffffffffffffff166338cc48316040518163ffffffff1660e01b8152600401602060405180830381600087803b158015611f8757600080fd5b505af1158015611f9b573d6000803e3d6000fd5b505050506040513d6020811015611fb157600080fd5b810190808051906020019092919050505073ffffffffffffffffffffffffffffffffffffffff16600160009054906101000a900473ffffffffffffffffffffffffffffffffffffffff1673ffffffffffffffffffffffffffffffffffffffff16146120fc57600260009054906101000a900473ffffffffffffffffffffffffffffffffffffffff1673ffffffffffffffffffffffffffffffffffffffff166338cc48316040518163ffffffff1660e01b8152600401602060405180830381600087803b15801561208057600080fd5b505af1158015612094573d6000803e3d6000fd5b505050506040513d60208110156120aa57600080fd5b8101908080519060200190929190505050600160006101000a81548173ffffffffffffffffffffffffffffffffffffffff021916908373ffffffffffffffffffffffffffffffffffffffff1602179055505b6000600160009054906101000a900473ffffffffffffffffffffffffffffffffffffffff1673ffffffffffffffffffffffffffffffffffffffff16632ef3accc86856040518363ffffffff1660e01b81526004018080602001838152602001828103825284818151815260200191508051906020019080838360005b83811015612193578082015181840152602081019050612178565b50505050905090810190601f1680156121c05780820380516001836020036101000a031916815260200191505b509350505050602060405180830381600087803b1580156121e057600080fd5b505af11580156121f4573d6000803e3d6000fd5b505050506040513d602081101561220a57600080fd5b81019080805190602001909291905050509050823a02670de0b6b3a76400000181111561223d576000801b9150506123e3565b606061224885612404565b9050600160009054906101000a900473ffffffffffffffffffffffffffffffffffffffff1673ffffffffffffffffffffffffffffffffffffffff1663c55c1cb68360008985896040518663ffffffff1660e01b8152600401808581526020018060200180602001848152602001838103835286818151815260200191508051906020019080838360005b838110156122ed5780820151818401526020810190506122d2565b50505050905090810190601f16801561231a5780820380516001836020036101000a031916815260200191505b50838103825285818151815260200191508051906020019080838360005b83811015612353578082015181840152602081019050612338565b50505050905090810190601f1680156123805780820380516001836020036101000a031916815260200191505b5096505050505050506020604051808303818588803b1580156123a257600080fd5b505af11580156123b6573d6000803e3d6000fd5b50505050506040513d60208110156123cd57600080fd5b8101908080519060200190929190505050925050505b9392505050565b8060039080519060200190612400929190612834565b5050565b606061240e612484565b6124166128b4565b61242281610400612490565b61242b816124da565b60008090505b835181101561246d5761246084828151811061244957fe5b6020026020010151836124e890919063ffffffff16565b8080600101915050612431565b506124778161250d565b8060000151915050919050565b60405180590338823950565b60008190506000602082816124a157fe5b06146124ba57602081816124b157fe5b06602003810190505b808360200181815250506040518084526000815281810160405250505050565b6124e581600461251b565b50565b6124f5826002835161253c565b612508818361267c90919063ffffffff16565b505050565b61251881600761251b565b50565b612538601f60058360ff16901b178361272790919063ffffffff16565b5050565b60178111612568576125638160058460ff16901b60ff16178461272790919063ffffffff16565b612677565b60ff81116125a95761258d601860058460ff16901b178461272790919063ffffffff16565b6125a3816001856127679092919063ffffffff16565b50612676565b61ffff81116125eb576125cf601960058460ff16901b178461272790919063ffffffff16565b6125e5816002856127679092919063ffffffff16565b50612675565b63ffffffff811161262f57612613601a60058460ff16901b178461272790919063ffffffff16565b612629816004856127679092919063ffffffff16565b50612674565b67ffffffffffffffff81116126735761265b601b60058460ff16901b178461272790919063ffffffff16565b612671816008856127679092919063ffffffff16565b505b5b5b5b5b505050565b6126846128b4565b826020015183600001515183510111156126b4576126b38360026126ad866020015186516127ce565b026127ea565b5b60008060008451905085518051602081830101945086518101825260208701935050505b602081106126fb57815183526020830192506020820191506020810390506126d8565b60006001826020036101000a039050801983511681855116818117865250508694505050505092915050565b8160200151600183600001515101111561274d5761274c8260028460200151026127ea565b5b815180516020818301018381536001820183525050505050565b61276f6128b4565b83602001518460000151518301111561279d5761279c8460026127968760200151866127ce565b026127ea565b5b60006001836101000a0390508451805184818301018684198251161781528582018352505050849150509392505050565b6000818311156127e0578290506127e4565b8190505b92915050565b6060826000015190506127fd8383612490565b612807838261267c565b50505050565b60405180608001604052806004905b606081526020019060019003908161281c5790505090565b828054600181600116156101000203166002900490600052602060002090601f016020900481019282601f1061287557805160ff19168380011785556128a3565b828001600101855582156128a3579182015b828111156128a2578251825591602001919060010190612887565b5b5090506128b091906128ce565b5090565b604051806040016040528060608152602001600081525090565b6128f091905b808211156128ec5760008160009055506001016128d4565b5090565b9056fea265627a7a723158206f96eb3d9144fbe5290854bd4252f5741de5f2b56f22b26424a4fedab6dc3e0d64736f6c63430005100032",
  "source": "import \"./Ownable.sol\";\r\nimport \"./Destroyable.sol\";\r\nimport \"./provableAPI_0.5.sol\";\r\n\r\npragma solidity ^0.5.16;\r\n\r\ncontract Flip is Ownable, Destroyable, usingProvable\r\n{\r\n    uint public balance;\r\n    uint256 constant NUM_RANDOM_BYTES_REQUESTED = 1;\r\n    \r\n    struct Player\r\n    {\r\n        uint256 playerNum;\r\n        bool waiting;\r\n    }\r\n\r\n    mapping (address => bytes32) public playerId;\r\n    mapping (bytes32 => Player) public players;\r\n\r\n    event wol(uint n);\r\n\r\n    constructor() public\r\n    {\r\n        update();\r\n    }\r\n\r\n    function __callback(bytes32 _queryId, string memory _result, bytes memory _proof) public\r\n    {\r\n        require(msg.sender == provable_cbAddress());\r\n\r\n        uint256 randomNumber = uint256(keccak256(abi.encodePacked(_result))) % 2;\r\n        players[_queryId].playerNum = randomNumber;\r\n        players[_queryId].waiting = false;\r\n    }\r\n\r\n    function update() public payable\r\n    {        \r\n        uint256 QUERY_EXECUTION_DELAY = 0;\r\n        uint256 GAS_FOR_CALLBACK = 200000;\r\n\r\n        bytes32 queryId = provable_newRandomDSQuery(\r\n            QUERY_EXECUTION_DELAY,\r\n            NUM_RANDOM_BYTES_REQUESTED,\r\n            GAS_FOR_CALLBACK\r\n        );\r\n        playerId[msg.sender] = queryId; \r\n        players[queryId].waiting = true;\r\n    }\r\n\r\n    function coinFlip(uint256 n) public payable\r\n    {\r\n        require(msg.value >= 0.01 ether);\r\n\r\n        uint256 m = players[playerId[msg.sender]].playerNum;\r\n\r\n        if(m != n)\r\n        {\r\n    \t\t    balance += msg.value;\r\n    \t\t    emit wol(0);\r\n        }\r\n        else\r\n        {\r\n            balance -= msg.value;\r\n            msg.sender.transfer(2*(msg.value));\r\n    \t\t    emit wol(1);\r\n        }\r\n    }\r\n\r\n    function donate() public payable \r\n    {\r\n        require (msg.value > 0);\r\n        balance += msg.value;\r\n    }\r\n\r\n    function takeMoney(uint toWithdraw) public onlyOwner returns(uint)\r\n    {\r\n        require(toWithdraw <= balance);\r\n        balance -= toWithdraw;\r\n        msg.sender.transfer(toWithdraw);\r\n    }\r\n}",
  "sourcePath": "C:/Users/User/Desktop/crypto/eth_project/My_first_project/Backend/contracts/Flip.sol",
  "compiler": {
    "name": "solc",
    "version": "0.5.16+commit.9c3226ce.Emscripten.clang"
  },
  "schemaVersion": "3.2.3",
  "updatedAt": "2020-08-26T09:47:16.233Z",
  "networkType": "ethereum",
  "devdoc": {
    "methods": {
      "__callback(bytes32,string)": {
        "details": "The following `__callback` functions are just placeholders ideally     meant to be defined in child contract when proofs are used.     The function bodies simply silence compiler warnings."
      }
    }
  },
  "userdoc": {
    "methods": {}
  }
}