{
  "contractName": "Flip",
  "abi": [
    {
      "anonymous": false,
      "inputs": [
        {
          "indexed": false,
          "internalType": "uint256",
          "name": "n",
          "type": "uint256"
        }
      ],
      "name": "wol",
      "type": "event"
    },
    {
      "constant": true,
      "inputs": [],
      "name": "balance",
      "outputs": [
        {
          "internalType": "uint256",
          "name": "",
          "type": "uint256"
        }
      ],
      "payable": false,
      "stateMutability": "view",
      "type": "function"
    },
    {
      "constant": true,
      "inputs": [],
      "name": "randomFlip",
      "outputs": [
        {
          "internalType": "uint256",
          "name": "",
          "type": "uint256"
        }
      ],
      "payable": false,
      "stateMutability": "view",
      "type": "function"
    },
    {
      "constant": false,
      "inputs": [
        {
          "internalType": "uint256",
          "name": "n",
          "type": "uint256"
        }
      ],
      "name": "coinFLip",
      "outputs": [],
      "payable": true,
      "stateMutability": "payable",
      "type": "function"
    },
    {
      "constant": false,
      "inputs": [],
      "name": "donate",
      "outputs": [],
      "payable": true,
      "stateMutability": "payable",
      "type": "function"
    },
    {
      "constant": false,
      "inputs": [
        {
          "internalType": "uint256",
          "name": "toWithdraw",
          "type": "uint256"
        }
      ],
      "name": "takeMoney",
      "outputs": [
        {
          "internalType": "uint256",
          "name": "",
          "type": "uint256"
        }
      ],
      "payable": false,
      "stateMutability": "nonpayable",
      "type": "function"
    }
  ],
  "bytecode": "0x6080604052336000806101000a81548173ffffffffffffffffffffffffffffffffffffffff021916908373ffffffffffffffffffffffffffffffffffffffff16021790555061035c806100536000396000f3fe60806040526004361061004a5760003560e01c806369aec9121461004f578063b69ef8a81461009e578063bbb4ef9a146100c9578063d1927eb9146100f7578063ed88c68e14610122575b600080fd5b34801561005b57600080fd5b506100886004803603602081101561007257600080fd5b810190808035906020019092919050505061012c565b6040518082815260200191505060405180910390f35b3480156100aa57600080fd5b506100b36101f2565b6040518082815260200191505060405180910390f35b6100f5600480360360208110156100df57600080fd5b81019080803590602001909291905050506101f8565b005b34801561010357600080fd5b5061010c6102f6565b6040518082815260200191505060405180910390f35b61012a610308565b005b60008060009054906101000a900473ffffffffffffffffffffffffffffffffffffffff1673ffffffffffffffffffffffffffffffffffffffff163373ffffffffffffffffffffffffffffffffffffffff161461018757600080fd5b60015482111561019657600080fd5b816001600082825403925050819055503373ffffffffffffffffffffffffffffffffffffffff166108fc839081150290604051600060405180830381858888f193505050501580156101ec573d6000803e3d6000fd5b50919050565b60015481565b6000341161020557600080fd5b8061020e6102f6565b1461026057346001600082825401925050819055507f6c266973f0276ca4d3f264805b67a57f592cd3cd18bbbce29685ef3c130aff1360006040518082815260200191505060405180910390a16102f3565b346001600082825403925050819055503373ffffffffffffffffffffffffffffffffffffffff166108fc346002029081150290604051600060405180830381858888f193505050501580156102b9573d6000803e3d6000fd5b507f6c266973f0276ca4d3f264805b67a57f592cd3cd18bbbce29685ef3c130aff1360016040518082815260200191505060405180910390a15b50565b60006002428161030257fe5b06905090565b6000341161031557600080fd5b3460016000828254019250508190555056fea265627a7a72315820b65c6467173f3cd3309877b64bfb6cb4c007dd3b1a02fda8647f01f7adb1d85e64736f6c63430005100032",
  "source": "pragma solidity ^0.5.16;\r\nimport \"./Ownable.sol\";\r\n\r\ncontract Flip is Ownable\r\n{\r\n\tuint public balance;\r\n\r\n\tevent wol(uint n);\r\n\t\r\n\r\n  \tfunction randomFlip() public view returns(uint)\r\n  \t{\r\n  \t\treturn now % 2;\r\n  \t}\r\n\r\n  \tfunction coinFLip(uint n) public payable\r\n  \t{\r\n  \t\trequire(msg.value > 0);\r\n  \t\t\r\n  \t\tif(randomFlip() != n)\r\n  \t\t{\r\n  \t\t\tbalance += msg.value;\r\n  \t\t\temit wol(0);\r\n  \t\t}\r\n  \t\telse\r\n  \t\t{\r\n\t\t\tbalance -= msg.value;\r\n  \t\t\tmsg.sender.transfer(2*(msg.value));\r\n  \t\t\temit wol(1);\r\n  \t\t}\r\n  \t}\r\n\r\n  \tfunction donate() public payable \r\n  \t{\r\n  \t\trequire (msg.value > 0);\r\n  \t\tbalance += msg.value;\r\n  \t}\r\n\r\n  \tfunction takeMoney(uint toWithdraw) public onlyOwner returns(uint)\r\n  \t{\r\n  \t\trequire(toWithdraw <= balance);\r\n  \t\tbalance -= toWithdraw;\r\n  \t\tmsg.sender.transfer(toWithdraw);\r\n  \t}\r\n}",
  "sourcePath": "C:/Users/User/Desktop/crypto/eth_project/My_first_project/Backend/contracts/Flip.sol",
  "compiler": {
    "name": "solc",
    "version": "0.5.16+commit.9c3226ce.Emscripten.clang"
  },
  "schemaVersion": "3.2.3",
  "updatedAt": "2020-08-22T20:35:45.896Z",
  "networkType": "ethereum",
  "devdoc": {
    "methods": {}
  },
  "userdoc": {
    "methods": {}
  }
}